{
  "contractName": "Killable",
  "abi": [
    {
      "constant": false,
      "inputs": [],
      "name": "resume",
      "outputs": [],
      "payable": false,
      "stateMutability": "nonpayable",
      "type": "function"
    },
    {
      "constant": false,
      "inputs": [
        {
          "name": "newOwner",
          "type": "address"
        }
      ],
      "name": "changedOwner",
      "outputs": [],
      "payable": false,
      "stateMutability": "nonpayable",
      "type": "function"
    },
    {
      "constant": false,
      "inputs": [],
      "name": "pause",
      "outputs": [],
      "payable": false,
      "stateMutability": "nonpayable",
      "type": "function"
    },
    {
      "constant": true,
      "inputs": [],
      "name": "getOwner",
      "outputs": [
        {
          "name": "_owner",
          "type": "address"
        }
      ],
      "payable": false,
      "stateMutability": "view",
      "type": "function"
    },
    {
      "constant": true,
      "inputs": [],
      "name": "isPaused",
      "outputs": [
        {
          "name": "_paused",
          "type": "bool"
        }
      ],
      "payable": false,
      "stateMutability": "view",
      "type": "function"
    },
    {
      "inputs": [],
      "payable": false,
      "stateMutability": "nonpayable",
      "type": "constructor"
    },
    {
      "anonymous": false,
      "inputs": [
        {
          "indexed": true,
          "name": "sender",
          "type": "address"
        }
      ],
      "name": "LogKilled",
      "type": "event"
    },
    {
      "anonymous": false,
      "inputs": [
        {
          "indexed": true,
          "name": "sender",
          "type": "address"
        },
        {
          "indexed": false,
          "name": "amount",
          "type": "uint256"
        }
      ],
      "name": "LogReturnFunds",
      "type": "event"
    },
    {
      "anonymous": false,
      "inputs": [
        {
          "indexed": true,
          "name": "sender",
          "type": "address"
        }
      ],
      "name": "LogPaused",
      "type": "event"
    },
    {
      "anonymous": false,
      "inputs": [
        {
          "indexed": true,
          "name": "sender",
          "type": "address"
        }
      ],
      "name": "LogResumed",
      "type": "event"
    },
    {
      "anonymous": false,
      "inputs": [
        {
          "indexed": true,
          "name": "oldOwner",
          "type": "address"
        },
        {
          "indexed": true,
          "name": "newOwner",
          "type": "address"
        }
      ],
      "name": "LogChangedOwner",
      "type": "event"
    },
    {
      "constant": true,
      "inputs": [],
      "name": "isKilled",
      "outputs": [
        {
          "name": "_killed",
          "type": "bool"
        }
      ],
      "payable": false,
      "stateMutability": "view",
      "type": "function"
    },
    {
      "constant": false,
      "inputs": [],
      "name": "kill",
      "outputs": [],
      "payable": false,
      "stateMutability": "nonpayable",
      "type": "function"
    },
    {
      "constant": false,
      "inputs": [],
      "name": "returnTheFunds",
      "outputs": [],
      "payable": false,
      "stateMutability": "nonpayable",
      "type": "function"
    }
  ],
  "bytecode": "0x608060405234801561001057600080fd5b50336000806101000a81548173ffffffffffffffffffffffffffffffffffffffff021916908373ffffffffffffffffffffffffffffffffffffffff160217905550610e12806100606000396000f3fe60806040526004361061008e576000357c0100000000000000000000000000000000000000000000000000000000900463ffffffff168063046f7da21461009357806341c0e1b5146100aa57806360e854de146100c15780638456cb5914610112578063893d20e8146101295780638fe8a10114610180578063b187bd26146101af578063cb18f0e0146101de575b600080fd5b34801561009f57600080fd5b506100a86101f5565b005b3480156100b657600080fd5b506100bf6103c2565b005b3480156100cd57600080fd5b50610110600480360360208110156100e457600080fd5b81019080803573ffffffffffffffffffffffffffffffffffffffff16906020019092919050505061063b565b005b34801561011e57600080fd5b50610127610867565b005b34801561013557600080fd5b5061013e610a36565b604051808273ffffffffffffffffffffffffffffffffffffffff1673ffffffffffffffffffffffffffffffffffffffff16815260200191505060405180910390f35b34801561018c57600080fd5b50610195610a5f565b604051808215151515815260200191505060405180910390f35b3480156101bb57600080fd5b506101c4610a75565b604051808215151515815260200191505060405180910390f35b3480156101ea57600080fd5b506101f3610a8b565b005b6000809054906101000a900473ffffffffffffffffffffffffffffffffffffffff1673ffffffffffffffffffffffffffffffffffffffff163373ffffffffffffffffffffffffffffffffffffffff161415156102df576040517f08c379a00000000000000000000000000000000000000000000000000000000081526004018080602001828103825260268152602001807f4f6e6c7920746865206f776e65722063616e2063616c6c20746869732066756e81526020017f6374696f6e2e000000000000000000000000000000000000000000000000000081525060400191505060405180910390fd5b600060149054906101000a900460ff161515610363576040517f08c379a00000000000000000000000000000000000000000000000000000000081526004018080602001828103825260178152602001807f54686520636f6e74726163742069732072756e6e696e6700000000000000000081525060200191505060405180910390fd5b60008060146101000a81548160ff0219169083151502179055503373ffffffffffffffffffffffffffffffffffffffff167f29560ba70e3537fccc61029db8de08e30408a3f131625765c51e3e972a7867ad60405160405180910390a2565b6000809054906101000a900473ffffffffffffffffffffffffffffffffffffffff1673ffffffffffffffffffffffffffffffffffffffff163373ffffffffffffffffffffffffffffffffffffffff161415156104ac576040517f08c379a00000000000000000000000000000000000000000000000000000000081526004018080602001828103825260268152602001807f4f6e6c7920746865206f776e65722063616e2063616c6c20746869732066756e81526020017f6374696f6e2e000000000000000000000000000000000000000000000000000081525060400191505060405180910390fd5b600060149054906101000a900460ff161515610530576040517f08c379a00000000000000000000000000000000000000000000000000000000081526004018080602001828103825260178152602001807f54686520636f6e74726163742069732072756e6e696e6700000000000000000081525060200191505060405180910390fd5b600060159054906101000a900460ff161515156105db576040517f08c379a00000000000000000000000000000000000000000000000000000000081526004018080602001828103825260258152602001807f54686520636f6e74726163742068617320616c7265616479206265656e206b6981526020017f6c6c65642e00000000000000000000000000000000000000000000000000000081525060400191505060405180910390fd5b6001600060156101000a81548160ff0219169083151502179055503373ffffffffffffffffffffffffffffffffffffffff167fdd1d1672156846fdc9d6e65d5701535f177a41834051f5f7328be7f4252bcb3160405160405180910390a2565b6000809054906101000a900473ffffffffffffffffffffffffffffffffffffffff1673ffffffffffffffffffffffffffffffffffffffff163373ffffffffffffffffffffffffffffffffffffffff16141515610725576040517f08c379a00000000000000000000000000000000000000000000000000000000081526004018080602001828103825260268152602001807f4f6e6c7920746865206f776e65722063616e2063616c6c20746869732066756e81526020017f6374696f6e2e000000000000000000000000000000000000000000000000000081525060400191505060405180910390fd5b600073ffffffffffffffffffffffffffffffffffffffff168173ffffffffffffffffffffffffffffffffffffffff16141515156107ca576040517f08c379a00000000000000000000000000000000000000000000000000000000081526004018080602001828103825260208152602001807f596f75206e65656420746f207061737320612076616c6964206164647265737381525060200191505060405180910390fd5b806000806101000a81548173ffffffffffffffffffffffffffffffffffffffff021916908373ffffffffffffffffffffffffffffffffffffffff1602179055508073ffffffffffffffffffffffffffffffffffffffff163373ffffffffffffffffffffffffffffffffffffffff167f85eb146f649e723cc240ce674fc8c964943a8aa5fd3013c511651e7a6c5c497060405160405180910390a350565b6000809054906101000a900473ffffffffffffffffffffffffffffffffffffffff1673ffffffffffffffffffffffffffffffffffffffff163373ffffffffffffffffffffffffffffffffffffffff16141515610951576040517f08c379a00000000000000000000000000000000000000000000000000000000081526004018080602001828103825260268152602001807f4f6e6c7920746865206f776e65722063616e2063616c6c20746869732066756e81526020017f6374696f6e2e000000000000000000000000000000000000000000000000000081525060400191505060405180910390fd5b600060149054906101000a900460ff161515156109d6576040517f08c379a00000000000000000000000000000000000000000000000000000000081526004018080602001828103825260168152602001807f54686520636f6e7472616374206973207061757365640000000000000000000081525060200191505060405180910390fd5b6001600060146101000a81548160ff0219169083151502179055503373ffffffffffffffffffffffffffffffffffffffff167fce3af5a3fdaee3c4327c1c434ea1d2186d7a9495f005d2a876dca182bd14571460405160405180910390a2565b60008060009054906101000a900473ffffffffffffffffffffffffffffffffffffffff16905090565b60008060159054906101000a900460ff16905090565b60008060149054906101000a900460ff16905090565b6000809054906101000a900473ffffffffffffffffffffffffffffffffffffffff1673ffffffffffffffffffffffffffffffffffffffff163373ffffffffffffffffffffffffffffffffffffffff16141515610b75576040517f08c379a00000000000000000000000000000000000000000000000000000000081526004018080602001828103825260268152602001807f4f6e6c7920746865206f776e65722063616e2063616c6c20746869732066756e81526020017f6374696f6e2e000000000000000000000000000000000000000000000000000081525060400191505060405180910390fd5b600060159054906101000a900460ff161515610bf9576040517f08c379a000000000000000000000000000000000000000000000000000000000815260040180806020018281038252601e8152602001807f54686520636f6e7472616374206973207374696c6c2072756e6e696e672e000081525060200191505060405180910390fd5b60003073ffffffffffffffffffffffffffffffffffffffff163114151515610c89576040517f08c379a00000000000000000000000000000000000000000000000000000000081526004018080602001828103825260188152602001807f4e6f2076616c756520696e2074686520636f6e7472616374000000000000000081525060200191505060405180910390fd5b60003373ffffffffffffffffffffffffffffffffffffffff163073ffffffffffffffffffffffffffffffffffffffff163160405180600001905060006040518083038185875af1925050503d8060008114610d00576040519150601f19603f3d011682016040523d82523d6000602084013e610d05565b606091505b50509050801515610d7e576040517f08c379a000000000000000000000000000000000000000000000000000000000815260040180806020018281038252600d8152602001807f526566756e64206661696c65640000000000000000000000000000000000000081525060200191505060405180910390fd5b3373ffffffffffffffffffffffffffffffffffffffff167fea3f672f65a0bca7224ef7cb18490051f6113a0a69283e71bbccfef490e0c70c3073ffffffffffffffffffffffffffffffffffffffff16316040518082815260200191505060405180910390a25056fea165627a7a72305820bb709dcaa9435538dd22257eb58c79c4f7e12703b68ddbd88c558bf2659d29050029",
  "source": "pragma solidity ^0.5.0;\n\nimport \"./Pausable.sol\";\n\ncontract Killable is Pausable{\n\n    event LogKilled(address indexed sender);\n    event LogReturnFunds(address indexed sender, uint256 amount);\n    \n    bool private killed;\n\n    constructor() public {}\n\n    modifier whenKilled() {\n        require(killed, \"The contract is still running.\");\n        _;\n    }\n\n    modifier whenAlive() {\n        require(!killed, \"The contract has already been killed.\");\n        _;\n    }\n\n    function isKilled() public view returns(bool _killed) {\n        return killed;\n    }\n     \n    function kill() public onlyOwner whenPaused whenAlive {\n        killed = true;\n        emit LogKilled(msg.sender);\n    }\n\n    function returnTheFunds() external onlyOwner whenKilled{\n        require(address(this).balance != 0, \"No value in the contract\");\n        (bool success, ) = msg.sender.call.value(address(this).balance)(\"\");\n        require(success, \"Refund failed\");\n        emit LogReturnFunds(msg.sender, address(this).balance);\n    }\n}",
  "sourcePath": "/Users/malou/Desktop/Splitter_Project/contracts/Killable.sol",
  "compiler": {
    "name": "solc",
    "version": "0.5.0+commit.1d4f565a.Emscripten.clang"
  },
  "schemaVersion": "3.0.3",
  "updatedAt": "2020-03-18T08:19:45.427Z",
  "devdoc": {
    "methods": {}
  },
  "userdoc": {
    "methods": {}
  }
}