{
  "contractName": "Killable",
  "abi": [
    {
      "constant": false,
      "inputs": [],
      "name": "resume",
      "outputs": [],
      "payable": false,
      "stateMutability": "nonpayable",
      "type": "function"
    },
    {
      "constant": false,
      "inputs": [
        {
          "name": "newOwner",
          "type": "address"
        }
      ],
      "name": "changedOwner",
      "outputs": [],
      "payable": false,
      "stateMutability": "nonpayable",
      "type": "function"
    },
    {
      "constant": false,
      "inputs": [],
      "name": "pause",
      "outputs": [],
      "payable": false,
      "stateMutability": "nonpayable",
      "type": "function"
    },
    {
      "constant": true,
      "inputs": [],
      "name": "isPaused",
      "outputs": [
        {
          "name": "_paused",
          "type": "bool"
        }
      ],
      "payable": false,
      "stateMutability": "view",
      "type": "function"
    },
    {
      "inputs": [],
      "payable": false,
      "stateMutability": "nonpayable",
      "type": "constructor"
    },
    {
      "anonymous": false,
      "inputs": [
        {
          "indexed": true,
          "name": "sender",
          "type": "address"
        }
      ],
      "name": "LogKill",
      "type": "event"
    },
    {
      "anonymous": false,
      "inputs": [
        {
          "indexed": true,
          "name": "sender",
          "type": "address"
        }
      ],
      "name": "LogPaused",
      "type": "event"
    },
    {
      "anonymous": false,
      "inputs": [
        {
          "indexed": true,
          "name": "sender",
          "type": "address"
        }
      ],
      "name": "LogResumed",
      "type": "event"
    },
    {
      "anonymous": false,
      "inputs": [
        {
          "indexed": true,
          "name": "oldOwner",
          "type": "address"
        },
        {
          "indexed": true,
          "name": "newOwner",
          "type": "address"
        }
      ],
      "name": "LogChangedOwner",
      "type": "event"
    },
    {
      "constant": true,
      "inputs": [],
      "name": "isKilled",
      "outputs": [
        {
          "name": "_killed",
          "type": "bool"
        }
      ],
      "payable": false,
      "stateMutability": "view",
      "type": "function"
    },
    {
      "constant": false,
      "inputs": [],
      "name": "kill",
      "outputs": [],
      "payable": false,
      "stateMutability": "nonpayable",
      "type": "function"
    },
    {
      "constant": false,
      "inputs": [],
      "name": "returnTheFunds",
      "outputs": [],
      "payable": false,
      "stateMutability": "nonpayable",
      "type": "function"
    }
  ],
  "bytecode": "0x608060405260008060146101000a81548160ff02191690831515021790555034801561002a57600080fd5b50336000806101000a81548173ffffffffffffffffffffffffffffffffffffffff021916908373ffffffffffffffffffffffffffffffffffffffff160217905550610d438061007a6000396000f3fe608060405260043610610083576000357c0100000000000000000000000000000000000000000000000000000000900463ffffffff168063046f7da21461008857806341c0e1b51461009f57806360e854de146100b65780638456cb59146101075780638fe8a1011461011e578063b187bd261461014d578063cb18f0e01461017c575b600080fd5b34801561009457600080fd5b5061009d610193565b005b3480156100ab57600080fd5b506100b4610360565b005b3480156100c257600080fd5b50610105600480360360208110156100d957600080fd5b81019080803573ffffffffffffffffffffffffffffffffffffffff1690602001909291905050506105d9565b005b34801561011357600080fd5b5061011c610826565b005b34801561012a57600080fd5b506101336109f5565b604051808215151515815260200191505060405180910390f35b34801561015957600080fd5b50610162610a0b565b604051808215151515815260200191505060405180910390f35b34801561018857600080fd5b50610191610a21565b005b6000809054906101000a900473ffffffffffffffffffffffffffffffffffffffff1673ffffffffffffffffffffffffffffffffffffffff163373ffffffffffffffffffffffffffffffffffffffff1614151561027d576040517f08c379a00000000000000000000000000000000000000000000000000000000081526004018080602001828103825260268152602001807f4f6e6c7920746865206f776e65722063616e2063616c6c20746869732066756e81526020017f6374696f6e2e000000000000000000000000000000000000000000000000000081525060400191505060405180910390fd5b600060149054906101000a900460ff161515610301576040517f08c379a00000000000000000000000000000000000000000000000000000000081526004018080602001828103825260178152602001807f54686520636f6e74726163742069732072756e6e696e6700000000000000000081525060200191505060405180910390fd5b60008060146101000a81548160ff0219169083151502179055503373ffffffffffffffffffffffffffffffffffffffff167f29560ba70e3537fccc61029db8de08e30408a3f131625765c51e3e972a7867ad60405160405180910390a2565b6000809054906101000a900473ffffffffffffffffffffffffffffffffffffffff1673ffffffffffffffffffffffffffffffffffffffff163373ffffffffffffffffffffffffffffffffffffffff1614151561044a576040517f08c379a00000000000000000000000000000000000000000000000000000000081526004018080602001828103825260268152602001807f4f6e6c7920746865206f776e65722063616e2063616c6c20746869732066756e81526020017f6374696f6e2e000000000000000000000000000000000000000000000000000081525060400191505060405180910390fd5b600060149054906101000a900460ff1615156104ce576040517f08c379a00000000000000000000000000000000000000000000000000000000081526004018080602001828103825260178152602001807f54686520636f6e74726163742069732072756e6e696e6700000000000000000081525060200191505060405180910390fd5b600060159054906101000a900460ff16151515610579576040517f08c379a00000000000000000000000000000000000000000000000000000000081526004018080602001828103825260258152602001807f54686520636f6e74726163742068617320616c7265616479206265656e206b6981526020017f6c6c65642e00000000000000000000000000000000000000000000000000000081525060400191505060405180910390fd5b6001600060156101000a81548160ff0219169083151502179055503373ffffffffffffffffffffffffffffffffffffffff167f7cd531232cf2a935531a2059a1021ee56cecce23e6f421cfa5cb1043fe101ab860405160405180910390a2565b6000809054906101000a900473ffffffffffffffffffffffffffffffffffffffff1673ffffffffffffffffffffffffffffffffffffffff163373ffffffffffffffffffffffffffffffffffffffff161415156106c3576040517f08c379a00000000000000000000000000000000000000000000000000000000081526004018080602001828103825260268152602001807f4f6e6c7920746865206f776e65722063616e2063616c6c20746869732066756e81526020017f6374696f6e2e000000000000000000000000000000000000000000000000000081525060400191505060405180910390fd5b600073ffffffffffffffffffffffffffffffffffffffff168173ffffffffffffffffffffffffffffffffffffffff1614151515610768576040517f08c379a00000000000000000000000000000000000000000000000000000000081526004018080602001828103825260208152602001807f596f75206e65656420746f207061737320612076616c6964206164647265737381525060200191505060405180910390fd5b806000806101000a81548173ffffffffffffffffffffffffffffffffffffffff021916908373ffffffffffffffffffffffffffffffffffffffff1602179055508073ffffffffffffffffffffffffffffffffffffffff166000809054906101000a900473ffffffffffffffffffffffffffffffffffffffff1673ffffffffffffffffffffffffffffffffffffffff167f85eb146f649e723cc240ce674fc8c964943a8aa5fd3013c511651e7a6c5c497060405160405180910390a350565b6000809054906101000a900473ffffffffffffffffffffffffffffffffffffffff1673ffffffffffffffffffffffffffffffffffffffff163373ffffffffffffffffffffffffffffffffffffffff16141515610910576040517f08c379a00000000000000000000000000000000000000000000000000000000081526004018080602001828103825260268152602001807f4f6e6c7920746865206f776e65722063616e2063616c6c20746869732066756e81526020017f6374696f6e2e000000000000000000000000000000000000000000000000000081525060400191505060405180910390fd5b600060149054906101000a900460ff16151515610995576040517f08c379a00000000000000000000000000000000000000000000000000000000081526004018080602001828103825260168152602001807f54686520636f6e7472616374206973207061757365640000000000000000000081525060200191505060405180910390fd5b6001600060146101000a81548160ff0219169083151502179055503373ffffffffffffffffffffffffffffffffffffffff167fce3af5a3fdaee3c4327c1c434ea1d2186d7a9495f005d2a876dca182bd14571460405160405180910390a2565b60008060159054906101000a900460ff16905090565b60008060149054906101000a900460ff16905090565b6000809054906101000a900473ffffffffffffffffffffffffffffffffffffffff1673ffffffffffffffffffffffffffffffffffffffff163373ffffffffffffffffffffffffffffffffffffffff16141515610b0b576040517f08c379a00000000000000000000000000000000000000000000000000000000081526004018080602001828103825260268152602001807f4f6e6c7920746865206f776e65722063616e2063616c6c20746869732066756e81526020017f6374696f6e2e000000000000000000000000000000000000000000000000000081525060400191505060405180910390fd5b600060159054906101000a900460ff161515610b8f576040517f08c379a000000000000000000000000000000000000000000000000000000000815260040180806020018281038252601e8152602001807f54686520636f6e7472616374206973207374696c6c2072756e6e696e672e000081525060200191505060405180910390fd5b60003073ffffffffffffffffffffffffffffffffffffffff163114151515610c1f576040517f08c379a00000000000000000000000000000000000000000000000000000000081526004018080602001828103825260188152602001807f4e6f2076616c756520696e2074686520636f6e7472616374000000000000000081525060200191505060405180910390fd5b60003373ffffffffffffffffffffffffffffffffffffffff163073ffffffffffffffffffffffffffffffffffffffff163160405180600001905060006040518083038185875af1925050503d8060008114610c96576040519150601f19603f3d011682016040523d82523d6000602084013e610c9b565b606091505b50509050801515610d14576040517f08c379a000000000000000000000000000000000000000000000000000000000815260040180806020018281038252600d8152602001807f526566756e64206661696c65640000000000000000000000000000000000000081525060200191505060405180910390fd5b5056fea165627a7a7230582041ff592a2168fe995ace6a18c7ffb5d8e201421597e40d21883c2406c8d3e0660029",
  "source": "pragma solidity ^0.5.0;\n\nimport \"./Pausable.sol\";\n\ncontract Killable is Pausable{\n\n    event LogKill(address indexed sender);\n    \n    bool killed;\n\n    constructor() public {}\n\n    modifier whenKilled() {\n        require(killed, \"The contract is still running.\");\n        _;\n    }\n\n    modifier whenAlive() {\n        require(!killed, \"The contract has already been killed.\");\n        _;\n    }\n\n    function isKilled() public view returns(bool _killed) {\n        return killed;\n    }\n    function kill() public onlyOwner whenPaused whenAlive{\n        killed = true;\n        emit LogKill(msg.sender);\n    }\n\n    function returnTheFunds() external onlyOwner whenKilled{\n        require(address(this).balance != 0, \"No value in the contract\");\n        (bool success, ) = msg.sender.call.value(address(this).balance)(\"\");\n        require(success, \"Refund failed\");\n    }\n}",
  "sourcePath": "/Users/malou/Desktop/Splitter_Project/contracts/Killable.sol",
  "compiler": {
    "name": "solc",
    "version": "0.5.0+commit.1d4f565a.Emscripten.clang"
  },
  "schemaVersion": "3.0.3",
  "updatedAt": "2019-10-06T12:44:24.161Z",
  "devdoc": {
    "methods": {}
  },
  "userdoc": {
    "methods": {}
  }
}