{
  "contractName": "splitter_contract",
  "abi": [
    {
      "constant": true,
      "inputs": [
        {
          "name": "",
          "type": "address"
        }
      ],
      "name": "balances",
      "outputs": [
        {
          "name": "",
          "type": "uint256"
        }
      ],
      "payable": false,
      "stateMutability": "view",
      "type": "function"
    },
    {
      "inputs": [],
      "payable": true,
      "stateMutability": "payable",
      "type": "constructor"
    },
    {
      "anonymous": false,
      "inputs": [
        {
          "indexed": false,
          "name": "from",
          "type": "address"
        },
        {
          "indexed": false,
          "name": "bob",
          "type": "address"
        },
        {
          "indexed": false,
          "name": "carol",
          "type": "address"
        },
        {
          "indexed": false,
          "name": "amount",
          "type": "uint256"
        }
      ],
      "name": "Sent",
      "type": "event"
    },
    {
      "anonymous": false,
      "inputs": [
        {
          "indexed": false,
          "name": "from",
          "type": "address"
        },
        {
          "indexed": false,
          "name": "amount",
          "type": "uint256"
        }
      ],
      "name": "Withdraw",
      "type": "event"
    },
    {
      "constant": false,
      "inputs": [
        {
          "name": "bob",
          "type": "address"
        },
        {
          "name": "carol",
          "type": "address"
        }
      ],
      "name": "sendSplit",
      "outputs": [
        {
          "name": "success",
          "type": "bool"
        }
      ],
      "payable": true,
      "stateMutability": "payable",
      "type": "function"
    },
    {
      "constant": false,
      "inputs": [],
      "name": "withdraw",
      "outputs": [
        {
          "name": "success",
          "type": "bool"
        }
      ],
      "payable": false,
      "stateMutability": "nonpayable",
      "type": "function"
    }
  ],
  "bytecode": "0x608060405261056b806100136000396000f3fe608060405260043610610057576000357c0100000000000000000000000000000000000000000000000000000000900463ffffffff16806327e235e31461005c5780633ccfd60b146100c15780637a0ba94a146100f0575b600080fd5b34801561006857600080fd5b506100ab6004803603602081101561007f57600080fd5b81019080803573ffffffffffffffffffffffffffffffffffffffff16906020019092919050505061016c565b6040518082815260200191505060405180910390f35b3480156100cd57600080fd5b506100d6610184565b604051808215151515815260200191505060405180910390f35b6101526004803603604081101561010657600080fd5b81019080803573ffffffffffffffffffffffffffffffffffffffff169060200190929190803573ffffffffffffffffffffffffffffffffffffffff1690602001909291905050506102d4565b604051808215151515815260200191505060405180910390f35b60006020528060005260406000206000915090505481565b6000806000803373ffffffffffffffffffffffffffffffffffffffff1673ffffffffffffffffffffffffffffffffffffffff168152602001908152602001600020549050600181101515156101d857600080fd5b60008060003373ffffffffffffffffffffffffffffffffffffffff1673ffffffffffffffffffffffffffffffffffffffff16815260200190815260200160002050507f884edad9ce6fa2440d8a54cc123490eb96d2768479d49ff9c7366125a94243643382604051808373ffffffffffffffffffffffffffffffffffffffff1673ffffffffffffffffffffffffffffffffffffffff1681526020018281526020019250505060405180910390a13373ffffffffffffffffffffffffffffffffffffffff166108fc829081150290604051600060405180830381858888f193505050501580156102cb573d6000803e3d6000fd5b50600191505090565b6000803411151561034d576040517f08c379a00000000000000000000000000000000000000000000000000000000081526004018080602001828103825260168152602001807f596f75206e65656420746f2073656e642076616c75650000000000000000000081525060200191505060405180910390fd5b600060023481151561035b57fe5b0690506000600282340381151561036e57fe5b0490506000821415156103c857816000803373ffffffffffffffffffffffffffffffffffffffff1673ffffffffffffffffffffffffffffffffffffffff168152602001908152602001600020600082825401925050819055505b806000808773ffffffffffffffffffffffffffffffffffffffff1673ffffffffffffffffffffffffffffffffffffffff16815260200190815260200160002060008282540192505081905550806000808673ffffffffffffffffffffffffffffffffffffffff1673ffffffffffffffffffffffffffffffffffffffff168152602001908152602001600020600082825401925050819055507fe9baa9cd6123e3a8e3c7eb87abf18c81b426473f4530382eec740fd0f0b5be7c33868634604051808573ffffffffffffffffffffffffffffffffffffffff1673ffffffffffffffffffffffffffffffffffffffff1681526020018473ffffffffffffffffffffffffffffffffffffffff1673ffffffffffffffffffffffffffffffffffffffff1681526020018373ffffffffffffffffffffffffffffffffffffffff1673ffffffffffffffffffffffffffffffffffffffff16815260200182815260200194505050505060405180910390a16001925050509291505056fea165627a7a723058203cf79346de3b66c8649a8d63df471f2c76c781ad6400ad33f654ace35e5de95b0029",
  "source": "pragma solidity ^0.5.0;\n\ncontract slpitter_contract {\n    mapping (address => uint) public balances;\n    event Sent(address from, address bob, address carol, uint256 amount);\n    event Withdraw ( address from, uint256 amount);\n    \n    constructor() public payable{}\n\n    function sendSplit ( address bob, address carol) public payable returns(bool success){\n     require(msg.value>0, \"You need to send value\");\n     \n        uint remainder = msg.value % 2; \n        uint256 amount = (msg.value-remainder)/2;\n        \n        if(remainder != 0){\n        balances[msg.sender] += remainder;\n            \n        }\n           \n        balances[bob] += amount;\n        balances[carol] += amount; \n            \n        emit Sent(msg.sender, bob, carol, msg.value); \n            \n        return true;\n    }\n       \n      function withdraw() public returns(bool success) {\n          uint256 toWithdraw = balances[msg.sender];\n        require(toWithdraw >= 1);\n        \n        balances[msg.sender] == 0; \n        \n        emit Withdraw(msg.sender, toWithdraw);\n        msg.sender.transfer(toWithdraw);  \n        \n        \n        return true;\n            }\n       \n}",
  "sourcePath": "/Users/malou/Desktop/Splitter_Project/contracts/splitter_contract.sol",
  "compiler": {
    "name": "solc",
    "version": "0.5.0+commit.1d4f565a.Emscripten.clang"
  },
  "schemaVersion": "3.0.3",
  "updatedAt": "2019-09-03T19:06:30.671Z",
  "devdoc": {
    "methods": {}
  },
  "userdoc": {
    "methods": {}
  }
}