{
  "contractName": "Splitter",
  "abi": [
    {
      "constant": false,
      "inputs": [],
      "name": "resume",
      "outputs": [],
      "payable": false,
      "stateMutability": "nonpayable",
      "type": "function",
      "signature": "0x046f7da2"
    },
    {
      "constant": true,
      "inputs": [
        {
          "name": "",
          "type": "address"
        }
      ],
      "name": "balances",
      "outputs": [
        {
          "name": "",
          "type": "uint256"
        }
      ],
      "payable": false,
      "stateMutability": "view",
      "type": "function",
      "signature": "0x27e235e3"
    },
    {
      "constant": false,
      "inputs": [],
      "name": "kill",
      "outputs": [],
      "payable": false,
      "stateMutability": "nonpayable",
      "type": "function",
      "signature": "0x41c0e1b5"
    },
    {
      "constant": false,
      "inputs": [
        {
          "name": "newOwner",
          "type": "address"
        }
      ],
      "name": "changedOwner",
      "outputs": [],
      "payable": false,
      "stateMutability": "nonpayable",
      "type": "function",
      "signature": "0x60e854de"
    },
    {
      "constant": false,
      "inputs": [],
      "name": "pause",
      "outputs": [],
      "payable": false,
      "stateMutability": "nonpayable",
      "type": "function",
      "signature": "0x8456cb59"
    },
    {
      "constant": true,
      "inputs": [],
      "name": "isKilled",
      "outputs": [
        {
          "name": "_killed",
          "type": "bool"
        }
      ],
      "payable": false,
      "stateMutability": "view",
      "type": "function",
      "signature": "0x8fe8a101"
    },
    {
      "constant": true,
      "inputs": [],
      "name": "isPaused",
      "outputs": [
        {
          "name": "_paused",
          "type": "bool"
        }
      ],
      "payable": false,
      "stateMutability": "view",
      "type": "function",
      "signature": "0xb187bd26"
    },
    {
      "constant": false,
      "inputs": [],
      "name": "returnTheFunds",
      "outputs": [],
      "payable": false,
      "stateMutability": "nonpayable",
      "type": "function",
      "signature": "0xcb18f0e0"
    },
    {
      "inputs": [],
      "payable": false,
      "stateMutability": "nonpayable",
      "type": "constructor",
      "signature": "constructor"
    },
    {
      "anonymous": false,
      "inputs": [
        {
          "indexed": true,
          "name": "from",
          "type": "address"
        },
        {
          "indexed": true,
          "name": "bob",
          "type": "address"
        },
        {
          "indexed": true,
          "name": "carol",
          "type": "address"
        },
        {
          "indexed": false,
          "name": "amount",
          "type": "uint256"
        }
      ],
      "name": "LogAmountSent",
      "type": "event",
      "signature": "0x26047b147e1579562c76e32a30bcc2267431fe6f5bf4006a20b82ae767935152"
    },
    {
      "anonymous": false,
      "inputs": [
        {
          "indexed": true,
          "name": "from",
          "type": "address"
        },
        {
          "indexed": false,
          "name": "amount",
          "type": "uint256"
        }
      ],
      "name": "LogAmountWithdrawn",
      "type": "event",
      "signature": "0x75dd8ec8593894849031419e9ccb7da1d537a89abc7bbaa42b4118e66fa50181"
    },
    {
      "anonymous": false,
      "inputs": [
        {
          "indexed": true,
          "name": "sender",
          "type": "address"
        }
      ],
      "name": "LogKill",
      "type": "event",
      "signature": "0x7cd531232cf2a935531a2059a1021ee56cecce23e6f421cfa5cb1043fe101ab8"
    },
    {
      "anonymous": false,
      "inputs": [
        {
          "indexed": true,
          "name": "sender",
          "type": "address"
        }
      ],
      "name": "LogPaused",
      "type": "event",
      "signature": "0xce3af5a3fdaee3c4327c1c434ea1d2186d7a9495f005d2a876dca182bd145714"
    },
    {
      "anonymous": false,
      "inputs": [
        {
          "indexed": true,
          "name": "sender",
          "type": "address"
        }
      ],
      "name": "LogResumed",
      "type": "event",
      "signature": "0x29560ba70e3537fccc61029db8de08e30408a3f131625765c51e3e972a7867ad"
    },
    {
      "anonymous": false,
      "inputs": [
        {
          "indexed": true,
          "name": "oldOwner",
          "type": "address"
        },
        {
          "indexed": true,
          "name": "newOwner",
          "type": "address"
        }
      ],
      "name": "LogChangedOwner",
      "type": "event",
      "signature": "0x85eb146f649e723cc240ce674fc8c964943a8aa5fd3013c511651e7a6c5c4970"
    },
    {
      "constant": false,
      "inputs": [
        {
          "name": "bob",
          "type": "address"
        },
        {
          "name": "carol",
          "type": "address"
        }
      ],
      "name": "split",
      "outputs": [
        {
          "name": "success",
          "type": "bool"
        }
      ],
      "payable": true,
      "stateMutability": "payable",
      "type": "function",
      "signature": "0x0f2c9329"
    },
    {
      "constant": false,
      "inputs": [],
      "name": "withdraw",
      "outputs": [
        {
          "name": "success",
          "type": "bool"
        }
      ],
      "payable": false,
      "stateMutability": "nonpayable",
      "type": "function",
      "signature": "0x3ccfd60b"
    }
  ],
  "bytecode": "0x608060405260008060146101000a81548160ff02191690831515021790555034801561002a57600080fd5b50336000806101000a81548173ffffffffffffffffffffffffffffffffffffffff021916908373ffffffffffffffffffffffffffffffffffffffff1602179055506119d18061007a6000396000f3fe6080604052600436106100a4576000357c0100000000000000000000000000000000000000000000000000000000900463ffffffff168063046f7da2146100a95780630f2c9329146100c057806327e235e31461013c5780633ccfd60b146101a157806341c0e1b5146101d057806360e854de146101e75780638456cb59146102385780638fe8a1011461024f578063b187bd261461027e578063cb18f0e0146102ad575b600080fd5b3480156100b557600080fd5b506100be6102c4565b005b610122600480360360408110156100d657600080fd5b81019080803573ffffffffffffffffffffffffffffffffffffffff169060200190929190803573ffffffffffffffffffffffffffffffffffffffff169060200190929190505050610491565b604051808215151515815260200191505060405180910390f35b34801561014857600080fd5b5061018b6004803603602081101561015f57600080fd5b81019080803573ffffffffffffffffffffffffffffffffffffffff16906020019092919050505061099b565b6040518082815260200191505060405180910390f35b3480156101ad57600080fd5b506101b66109b3565b604051808215151515815260200191505060405180910390f35b3480156101dc57600080fd5b506101e5610d41565b005b3480156101f357600080fd5b506102366004803603602081101561020a57600080fd5b81019080803573ffffffffffffffffffffffffffffffffffffffff169060200190929190505050610fba565b005b34801561024457600080fd5b5061024d611207565b005b34801561025b57600080fd5b506102646113d6565b604051808215151515815260200191505060405180910390f35b34801561028a57600080fd5b506102936113ec565b604051808215151515815260200191505060405180910390f35b3480156102b957600080fd5b506102c2611402565b005b6000809054906101000a900473ffffffffffffffffffffffffffffffffffffffff1673ffffffffffffffffffffffffffffffffffffffff163373ffffffffffffffffffffffffffffffffffffffff161415156103ae576040517f08c379a00000000000000000000000000000000000000000000000000000000081526004018080602001828103825260268152602001807f4f6e6c7920746865206f776e65722063616e2063616c6c20746869732066756e81526020017f6374696f6e2e000000000000000000000000000000000000000000000000000081525060400191505060405180910390fd5b600060149054906101000a900460ff161515610432576040517f08c379a00000000000000000000000000000000000000000000000000000000081526004018080602001828103825260178152602001807f54686520636f6e74726163742069732072756e6e696e6700000000000000000081525060200191505060405180910390fd5b60008060146101000a81548160ff0219169083151502179055503373ffffffffffffffffffffffffffffffffffffffff167f29560ba70e3537fccc61029db8de08e30408a3f131625765c51e3e972a7867ad60405160405180910390a2565b60008060149054906101000a900460ff16151515610517576040517f08c379a00000000000000000000000000000000000000000000000000000000081526004018080602001828103825260168152602001807f54686520636f6e7472616374206973207061757365640000000000000000000081525060200191505060405180910390fd5b600060159054906101000a900460ff161515156105c2576040517f08c379a00000000000000000000000000000000000000000000000000000000081526004018080602001828103825260258152602001807f54686520636f6e74726163742068617320616c7265616479206265656e206b6981526020017f6c6c65642e00000000000000000000000000000000000000000000000000000081525060400191505060405180910390fd5b6000341415151561063b576040517f08c379a00000000000000000000000000000000000000000000000000000000081526004018080602001828103825260168152602001807f596f75206e65656420746f2073656e642076616c75650000000000000000000081525060200191505060405180910390fd5b600073ffffffffffffffffffffffffffffffffffffffff168373ffffffffffffffffffffffffffffffffffffffff16141580156106a55750600073ffffffffffffffffffffffffffffffffffffffff168273ffffffffffffffffffffffffffffffffffffffff1614155b1515610719576040517f08c379a00000000000000000000000000000000000000000000000000000000081526004018080602001828103825260208152602001807f596f75206e65656420746f20706173732076616c69642061646472657373657381525060200191505060405180910390fd5b600061072f6002346116f890919063ffffffff16565b9050600061074760023461174290919063ffffffff16565b90506000821415156107e9576107a582600160003373ffffffffffffffffffffffffffffffffffffffff1673ffffffffffffffffffffffffffffffffffffffff1681526020019081526020016000205461178c90919063ffffffff16565b600160003373ffffffffffffffffffffffffffffffffffffffff1673ffffffffffffffffffffffffffffffffffffffff168152602001908152602001600020819055505b61083b81600160008873ffffffffffffffffffffffffffffffffffffffff1673ffffffffffffffffffffffffffffffffffffffff1681526020019081526020016000205461178c90919063ffffffff16565b600160008773ffffffffffffffffffffffffffffffffffffffff1673ffffffffffffffffffffffffffffffffffffffff168152602001908152602001600020819055506108d081600160008773ffffffffffffffffffffffffffffffffffffffff1673ffffffffffffffffffffffffffffffffffffffff1681526020019081526020016000205461178c90919063ffffffff16565b600160008673ffffffffffffffffffffffffffffffffffffffff1673ffffffffffffffffffffffffffffffffffffffff168152602001908152602001600020819055508373ffffffffffffffffffffffffffffffffffffffff168573ffffffffffffffffffffffffffffffffffffffff163373ffffffffffffffffffffffffffffffffffffffff167f26047b147e1579562c76e32a30bcc2267431fe6f5bf4006a20b82ae767935152346040518082815260200191505060405180910390a460019250505092915050565b60016020528060005260406000206000915090505481565b60008060149054906101000a900460ff16151515610a39576040517f08c379a00000000000000000000000000000000000000000000000000000000081526004018080602001828103825260168152602001807f54686520636f6e7472616374206973207061757365640000000000000000000081525060200191505060405180910390fd5b600060159054906101000a900460ff16151515610ae4576040517f08c379a00000000000000000000000000000000000000000000000000000000081526004018080602001828103825260258152602001807f54686520636f6e74726163742068617320616c7265616479206265656e206b6981526020017f6c6c65642e00000000000000000000000000000000000000000000000000000081525060400191505060405180910390fd5b6000600160003373ffffffffffffffffffffffffffffffffffffffff1673ffffffffffffffffffffffffffffffffffffffff16815260200190815260200160002054905060008114151515610ba1576040517f08c379a00000000000000000000000000000000000000000000000000000000081526004018080602001828103825260208152602001807f596f7520646f6e277420686176652066756e647320746f20776974686472617781525060200191505060405180910390fd5b6000600160003373ffffffffffffffffffffffffffffffffffffffff1673ffffffffffffffffffffffffffffffffffffffff168152602001908152602001600020819055503373ffffffffffffffffffffffffffffffffffffffff167f75dd8ec8593894849031419e9ccb7da1d537a89abc7bbaa42b4118e66fa50181826040518082815260200191505060405180910390a260003373ffffffffffffffffffffffffffffffffffffffff168260405180600001905060006040518083038185875af1925050503d8060008114610c94576040519150601f19603f3d011682016040523d82523d6000602084013e610c99565b606091505b50509050801515610d38576040517f08c379a00000000000000000000000000000000000000000000000000000000081526004018080602001828103825260278152602001807f4e6f2076616c756520776173207472616e73666572656420746f20796f75722081526020017f6163636f756e740000000000000000000000000000000000000000000000000081525060400191505060405180910390fd5b60019250505090565b6000809054906101000a900473ffffffffffffffffffffffffffffffffffffffff1673ffffffffffffffffffffffffffffffffffffffff163373ffffffffffffffffffffffffffffffffffffffff16141515610e2b576040517f08c379a00000000000000000000000000000000000000000000000000000000081526004018080602001828103825260268152602001807f4f6e6c7920746865206f776e65722063616e2063616c6c20746869732066756e81526020017f6374696f6e2e000000000000000000000000000000000000000000000000000081525060400191505060405180910390fd5b600060149054906101000a900460ff161515610eaf576040517f08c379a00000000000000000000000000000000000000000000000000000000081526004018080602001828103825260178152602001807f54686520636f6e74726163742069732072756e6e696e6700000000000000000081525060200191505060405180910390fd5b600060159054906101000a900460ff16151515610f5a576040517f08c379a00000000000000000000000000000000000000000000000000000000081526004018080602001828103825260258152602001807f54686520636f6e74726163742068617320616c7265616479206265656e206b6981526020017f6c6c65642e00000000000000000000000000000000000000000000000000000081525060400191505060405180910390fd5b6001600060156101000a81548160ff0219169083151502179055503373ffffffffffffffffffffffffffffffffffffffff167f7cd531232cf2a935531a2059a1021ee56cecce23e6f421cfa5cb1043fe101ab860405160405180910390a2565b6000809054906101000a900473ffffffffffffffffffffffffffffffffffffffff1673ffffffffffffffffffffffffffffffffffffffff163373ffffffffffffffffffffffffffffffffffffffff161415156110a4576040517f08c379a00000000000000000000000000000000000000000000000000000000081526004018080602001828103825260268152602001807f4f6e6c7920746865206f776e65722063616e2063616c6c20746869732066756e81526020017f6374696f6e2e000000000000000000000000000000000000000000000000000081525060400191505060405180910390fd5b600073ffffffffffffffffffffffffffffffffffffffff168173ffffffffffffffffffffffffffffffffffffffff1614151515611149576040517f08c379a00000000000000000000000000000000000000000000000000000000081526004018080602001828103825260208152602001807f596f75206e65656420746f207061737320612076616c6964206164647265737381525060200191505060405180910390fd5b806000806101000a81548173ffffffffffffffffffffffffffffffffffffffff021916908373ffffffffffffffffffffffffffffffffffffffff1602179055508073ffffffffffffffffffffffffffffffffffffffff166000809054906101000a900473ffffffffffffffffffffffffffffffffffffffff1673ffffffffffffffffffffffffffffffffffffffff167f85eb146f649e723cc240ce674fc8c964943a8aa5fd3013c511651e7a6c5c497060405160405180910390a350565b6000809054906101000a900473ffffffffffffffffffffffffffffffffffffffff1673ffffffffffffffffffffffffffffffffffffffff163373ffffffffffffffffffffffffffffffffffffffff161415156112f1576040517f08c379a00000000000000000000000000000000000000000000000000000000081526004018080602001828103825260268152602001807f4f6e6c7920746865206f776e65722063616e2063616c6c20746869732066756e81526020017f6374696f6e2e000000000000000000000000000000000000000000000000000081525060400191505060405180910390fd5b600060149054906101000a900460ff16151515611376576040517f08c379a00000000000000000000000000000000000000000000000000000000081526004018080602001828103825260168152602001807f54686520636f6e7472616374206973207061757365640000000000000000000081525060200191505060405180910390fd5b6001600060146101000a81548160ff0219169083151502179055503373ffffffffffffffffffffffffffffffffffffffff167fce3af5a3fdaee3c4327c1c434ea1d2186d7a9495f005d2a876dca182bd14571460405160405180910390a2565b60008060159054906101000a900460ff16905090565b60008060149054906101000a900460ff16905090565b6000809054906101000a900473ffffffffffffffffffffffffffffffffffffffff1673ffffffffffffffffffffffffffffffffffffffff163373ffffffffffffffffffffffffffffffffffffffff161415156114ec576040517f08c379a00000000000000000000000000000000000000000000000000000000081526004018080602001828103825260268152602001807f4f6e6c7920746865206f776e65722063616e2063616c6c20746869732066756e81526020017f6374696f6e2e000000000000000000000000000000000000000000000000000081525060400191505060405180910390fd5b600060159054906101000a900460ff161515611570576040517f08c379a000000000000000000000000000000000000000000000000000000000815260040180806020018281038252601e8152602001807f54686520636f6e7472616374206973207374696c6c2072756e6e696e672e000081525060200191505060405180910390fd5b60003073ffffffffffffffffffffffffffffffffffffffff163114151515611600576040517f08c379a00000000000000000000000000000000000000000000000000000000081526004018080602001828103825260188152602001807f4e6f2076616c756520696e2074686520636f6e7472616374000000000000000081525060200191505060405180910390fd5b60003373ffffffffffffffffffffffffffffffffffffffff163073ffffffffffffffffffffffffffffffffffffffff163160405180600001905060006040518083038185875af1925050503d8060008114611677576040519150601f19603f3d011682016040523d82523d6000602084013e61167c565b606091505b505090508015156116f5576040517f08c379a000000000000000000000000000000000000000000000000000000000815260040180806020018281038252600d8152602001807f526566756e64206661696c65640000000000000000000000000000000000000081525060200191505060405180910390fd5b50565b600061173a83836040805190810160405280601881526020017f536166654d6174683a206d6f64756c6f206279207a65726f0000000000000000815250611816565b905092915050565b600061178483836040805190810160405280601a81526020017f536166654d6174683a206469766973696f6e206279207a65726f0000000000008152506118db565b905092915050565b600080828401905083811015151561180c576040517f08c379a000000000000000000000000000000000000000000000000000000000815260040180806020018281038252601b8152602001807f536166654d6174683a206164646974696f6e206f766572666c6f77000000000081525060200191505060405180910390fd5b8091505092915050565b600080831415829015156118c5576040517f08c379a00000000000000000000000000000000000000000000000000000000081526004018080602001828103825283818151815260200191508051906020019080838360005b8381101561188a57808201518184015260208101905061186f565b50505050905090810190601f1680156118b75780820380516001836020036101000a031916815260200191505b509250505060405180910390fd5b5082848115156118d157fe5b0690509392505050565b600080831182901515611989576040517f08c379a00000000000000000000000000000000000000000000000000000000081526004018080602001828103825283818151815260200191508051906020019080838360005b8381101561194e578082015181840152602081019050611933565b50505050905090810190601f16801561197b5780820380516001836020036101000a031916815260200191505b509250505060405180910390fd5b506000838581151561199757fe5b04905080915050939250505056fea165627a7a72305820517bd149895f0848b90612b659f521f49cfea6f21b27482c45131de43ce3485b0029",
  "source": "pragma solidity ^0.5.0;\n\nimport \"./SafeMath.sol\";\nimport \"./Killable.sol\";\n\ncontract Splitter is  Killable {\n    mapping (address => uint) public balances;\n    event LogAmountSent(address indexed from, address indexed bob, address indexed carol, uint256 amount);\n    event LogAmountWithdrawn(address indexed from, uint256 amount);\n    \n    using SafeMath for uint256;\n\n    constructor() public {}\n\n    function split(address bob, address carol) external payable whenRunning whenAlive returns(bool success){\n      require(msg.value != 0, \"You need to send value\");\n      require(bob != address(0x0) && carol != address(0x0), \"You need to pass valid addresses\");\n      uint256 remainder = msg.value.mod(2); \n      uint256 amount = msg.value.div(2);\n        \n      if(remainder != 0){\n          balances[msg.sender] = balances[msg.sender].add(remainder);\n      }\n\n      balances[bob] = balances[bob].add(amount);\n      balances[carol] = balances[carol].add(amount);\n            \n      emit LogAmountSent(msg.sender, bob, carol, msg.value); \n            \n      return true;\n    }\n       \n      function withdraw() public whenRunning whenAlive returns(bool success) {\n        uint256 toWithdraw = balances[msg.sender];\n        require(toWithdraw != 0, \"You don't have funds to withdraw\");\n        \n        balances[msg.sender] = 0; \n        emit LogAmountWithdrawn(msg.sender, toWithdraw);\n        \n        (bool worked, ) = msg.sender.call.value(toWithdraw)(\"\");\n        require(worked, \"No value was transfered to your account\");\n        \n        return true;\n        }\n      \n  }",
  "sourcePath": "/Users/malou/Desktop/Splitter_Project/contracts/Splitter.sol",
  "compiler": {
    "name": "solc",
    "version": "0.5.0+commit.1d4f565a.Emscripten.clang"
  },
  "schemaVersion": "3.0.3",
  "updatedAt": "2019-10-06T12:59:44.177Z",
  "devdoc": {
    "methods": {}
  },
  "userdoc": {
    "methods": {}
  }
}