{
  "contractName": "Splitter",
  "abi": [
    {
      "constant": true,
      "inputs": [
        {
          "name": "",
          "type": "address"
        }
      ],
      "name": "balance",
      "outputs": [
        {
          "name": "",
          "type": "uint256"
        }
      ],
      "payable": false,
      "stateMutability": "view",
      "type": "function"
    },
    {
      "inputs": [],
      "payable": true,
      "stateMutability": "payable",
      "type": "constructor"
    },
    {
      "anonymous": false,
      "inputs": [
        {
          "indexed": false,
          "name": "from",
          "type": "address"
        },
        {
          "indexed": false,
          "name": "bob",
          "type": "address"
        },
        {
          "indexed": false,
          "name": "carol",
          "type": "address"
        },
        {
          "indexed": false,
          "name": "amount",
          "type": "uint256"
        }
      ],
      "name": "Sent",
      "type": "event"
    },
    {
      "anonymous": false,
      "inputs": [
        {
          "indexed": false,
          "name": "from",
          "type": "address"
        },
        {
          "indexed": false,
          "name": "amount",
          "type": "uint256"
        }
      ],
      "name": "Withdraw",
      "type": "event"
    },
    {
      "constant": false,
      "inputs": [
        {
          "name": "bob",
          "type": "address"
        },
        {
          "name": "carol",
          "type": "address"
        }
      ],
      "name": "sendSplit",
      "outputs": [
        {
          "name": "success",
          "type": "bool"
        }
      ],
      "payable": true,
      "stateMutability": "payable",
      "type": "function"
    },
    {
      "constant": false,
      "inputs": [],
      "name": "withdraw",
      "outputs": [
        {
          "name": "success",
          "type": "bool"
        }
      ],
      "payable": false,
      "stateMutability": "nonpayable",
      "type": "function"
    }
  ],
  "bytecode": "0x60806040526105b3806100136000396000f3fe608060405260043610610057576000357c0100000000000000000000000000000000000000000000000000000000900463ffffffff1680633ccfd60b1461005c5780637a0ba94a1461008b578063e3d670d714610107575b600080fd5b34801561006857600080fd5b5061007161016c565b604051808215151515815260200191505060405180910390f35b6100ed600480360360408110156100a157600080fd5b81019080803573ffffffffffffffffffffffffffffffffffffffff169060200190929190803573ffffffffffffffffffffffffffffffffffffffff169060200190929190505050610300565b604051808215151515815260200191505060405180910390f35b34801561011357600080fd5b506101566004803603602081101561012a57600080fd5b81019080803573ffffffffffffffffffffffffffffffffffffffff16906020019092919050505061056f565b6040518082815260200191505060405180910390f35b600060016000803373ffffffffffffffffffffffffffffffffffffffff1673ffffffffffffffffffffffffffffffffffffffff16815260200190815260200160002054101515156101bc57600080fd5b6000803373ffffffffffffffffffffffffffffffffffffffff1673ffffffffffffffffffffffffffffffffffffffff1681526020019081526020016000205460018190555060008060003373ffffffffffffffffffffffffffffffffffffffff1673ffffffffffffffffffffffffffffffffffffffff16815260200190815260200160002050507f884edad9ce6fa2440d8a54cc123490eb96d2768479d49ff9c7366125a942436433600154604051808373ffffffffffffffffffffffffffffffffffffffff1673ffffffffffffffffffffffffffffffffffffffff1681526020018281526020019250505060405180910390a13373ffffffffffffffffffffffffffffffffffffffff166108fc6001549081150290604051600060405180830381858888f193505050501580156102f8573d6000803e3d6000fd5b506001905090565b60008034111515610379576040517f08c379a00000000000000000000000000000000000000000000000000000000081526004018080602001828103825260168152602001807f596f75206e65656420746f2073656e642076616c75650000000000000000000081525060200191505060405180910390fd5b600060023481151561038757fe5b069050600281340381151561039857fe5b0460018190555060008110156103f557806000803373ffffffffffffffffffffffffffffffffffffffff1673ffffffffffffffffffffffffffffffffffffffff168152602001908152602001600020600082825401925050819055505b6001546000808673ffffffffffffffffffffffffffffffffffffffff1673ffffffffffffffffffffffffffffffffffffffff168152602001908152602001600020600082825401925050819055506001546000808573ffffffffffffffffffffffffffffffffffffffff1673ffffffffffffffffffffffffffffffffffffffff168152602001908152602001600020600082825401925050819055507fe9baa9cd6123e3a8e3c7eb87abf18c81b426473f4530382eec740fd0f0b5be7c33858534604051808573ffffffffffffffffffffffffffffffffffffffff1673ffffffffffffffffffffffffffffffffffffffff1681526020018473ffffffffffffffffffffffffffffffffffffffff1673ffffffffffffffffffffffffffffffffffffffff1681526020018373ffffffffffffffffffffffffffffffffffffffff1673ffffffffffffffffffffffffffffffffffffffff16815260200182815260200194505050505060405180910390a1600191505092915050565b6000602052806000526040600020600091509050548156fea165627a7a7230582044adf339160b2d9c4d195c54a5daf6bfe409facb7e3f0f0b5561af61473af3220029",
  "source": "pragma solidity ^0.5.0;\n\ncontract Splitter {\n    mapping (address => uint) public balance;\n    uint256 amount;\n    event Sent(address from, address bob, address carol, uint256 amount);\n    event Withdraw ( address from, uint256 amount);\n    \n    constructor() public payable{}\n\n    function sendSplit ( address payable bob, address payable carol) public payable returns(bool success){\n     require(msg.value>0, \"You need to send value\");\n     \n        uint remainder = msg.value % 2; \n        amount = (msg.value-remainder)/2;\n        \n        if(remainder <0){\n        balance[msg.sender] += remainder;\n            \n        }\n           \n        balance[bob] += amount;\n        balance[carol] += amount; \n            \n        emit Sent(msg.sender, bob, carol, msg.value); \n            \n        return true;\n    }\n       \n      function withdraw() public returns(bool success) {\n        require(balance[msg.sender] >= 1);\n        amount = balance[msg.sender];\n        balance[msg.sender] == 0; \n        \n        emit Withdraw(msg.sender, amount);\n        msg.sender.transfer(amount);  \n        \n        \n        return true;\n            }\n       \n}",
  "sourcePath": "/Users/malou/Desktop/Splitter_Project/contracts/splitter_contract.sol",
  "compiler": {
    "name": "solc",
    "version": "0.5.0+commit.1d4f565a.Emscripten.clang"
  },
  "schemaVersion": "3.0.3",
  "updatedAt": "2019-08-29T19:58:25.294Z",
  "devdoc": {
    "methods": {}
  },
  "userdoc": {
    "methods": {}
  }
}