{
  "contractName": "Splitter",
  "abi": [
    {
      "constant": true,
      "inputs": [
        {
          "name": "",
          "type": "address"
        }
      ],
      "name": "balances",
      "outputs": [
        {
          "name": "",
          "type": "uint256"
        }
      ],
      "payable": false,
      "stateMutability": "view",
      "type": "function",
      "signature": "0x27e235e3"
    },
    {
      "inputs": [],
      "payable": false,
      "stateMutability": "nonpayable",
      "type": "constructor",
      "signature": "constructor"
    },
    {
      "anonymous": false,
      "inputs": [
        {
          "indexed": true,
          "name": "from",
          "type": "address"
        },
        {
          "indexed": true,
          "name": "bob",
          "type": "address"
        },
        {
          "indexed": true,
          "name": "carol",
          "type": "address"
        },
        {
          "indexed": false,
          "name": "amount",
          "type": "uint256"
        }
      ],
      "name": "LogAmountSent",
      "type": "event",
      "signature": "0x26047b147e1579562c76e32a30bcc2267431fe6f5bf4006a20b82ae767935152"
    },
    {
      "anonymous": false,
      "inputs": [
        {
          "indexed": true,
          "name": "from",
          "type": "address"
        },
        {
          "indexed": false,
          "name": "amount",
          "type": "uint256"
        }
      ],
      "name": "LogAmountWithdrawn",
      "type": "event",
      "signature": "0x75dd8ec8593894849031419e9ccb7da1d537a89abc7bbaa42b4118e66fa50181"
    },
    {
      "constant": false,
      "inputs": [
        {
          "name": "bob",
          "type": "address"
        },
        {
          "name": "carol",
          "type": "address"
        }
      ],
      "name": "split",
      "outputs": [
        {
          "name": "success",
          "type": "bool"
        }
      ],
      "payable": true,
      "stateMutability": "payable",
      "type": "function",
      "signature": "0x0f2c9329"
    },
    {
      "constant": false,
      "inputs": [],
      "name": "withdraw",
      "outputs": [
        {
          "name": "success",
          "type": "bool"
        }
      ],
      "payable": false,
      "stateMutability": "nonpayable",
      "type": "function",
      "signature": "0x3ccfd60b"
    }
  ],
  "bytecode": "0x608060405234801561001057600080fd5b506108fa806100206000396000f3fe608060405260043610610057576000357c0100000000000000000000000000000000000000000000000000000000900463ffffffff1680630f2c93291461005c57806327e235e3146100d85780633ccfd60b1461013d575b600080fd5b6100be6004803603604081101561007257600080fd5b81019080803573ffffffffffffffffffffffffffffffffffffffff169060200190929190803573ffffffffffffffffffffffffffffffffffffffff16906020019092919050505061016c565b604051808215151515815260200191505060405180910390f35b3480156100e457600080fd5b50610127600480360360208110156100fb57600080fd5b81019080803573ffffffffffffffffffffffffffffffffffffffff1690602001909291905050506104d4565b6040518082815260200191505060405180910390f35b34801561014957600080fd5b506101526104ec565b604051808215151515815260200191505060405180910390f35b600080341115156101e5576040517f08c379a00000000000000000000000000000000000000000000000000000000081526004018080602001828103825260168152602001807f596f75206e65656420746f2073656e642076616c75650000000000000000000081525060200191505060405180910390fd5b600073ffffffffffffffffffffffffffffffffffffffff168373ffffffffffffffffffffffffffffffffffffffff1614801561024d5750600073ffffffffffffffffffffffffffffffffffffffff168273ffffffffffffffffffffffffffffffffffffffff16145b151561025857600080fd5b600061026e60023461062190919063ffffffff16565b9050600061028660023461066b90919063ffffffff16565b9050600082141515610326576102e3826000803373ffffffffffffffffffffffffffffffffffffffff1673ffffffffffffffffffffffffffffffffffffffff168152602001908152602001600020546106b590919063ffffffff16565b6000803373ffffffffffffffffffffffffffffffffffffffff1673ffffffffffffffffffffffffffffffffffffffff168152602001908152602001600020819055505b610377816000808873ffffffffffffffffffffffffffffffffffffffff1673ffffffffffffffffffffffffffffffffffffffff168152602001908152602001600020546106b590919063ffffffff16565b6000808773ffffffffffffffffffffffffffffffffffffffff1673ffffffffffffffffffffffffffffffffffffffff1681526020019081526020016000208190555061040a816000808773ffffffffffffffffffffffffffffffffffffffff1673ffffffffffffffffffffffffffffffffffffffff168152602001908152602001600020546106b590919063ffffffff16565b6000808673ffffffffffffffffffffffffffffffffffffffff1673ffffffffffffffffffffffffffffffffffffffff168152602001908152602001600020819055508373ffffffffffffffffffffffffffffffffffffffff168573ffffffffffffffffffffffffffffffffffffffff163373ffffffffffffffffffffffffffffffffffffffff167f26047b147e1579562c76e32a30bcc2267431fe6f5bf4006a20b82ae767935152346040518082815260200191505060405180910390a460019250505092915050565b60006020528060005260406000206000915090505481565b6000806000803373ffffffffffffffffffffffffffffffffffffffff1673ffffffffffffffffffffffffffffffffffffffff1681526020019081526020016000205490506001811015151561054057600080fd5b60008060003373ffffffffffffffffffffffffffffffffffffffff1673ffffffffffffffffffffffffffffffffffffffff168152602001908152602001600020819055503373ffffffffffffffffffffffffffffffffffffffff167f75dd8ec8593894849031419e9ccb7da1d537a89abc7bbaa42b4118e66fa50181826040518082815260200191505060405180910390a23373ffffffffffffffffffffffffffffffffffffffff166108fc829081150290604051600060405180830381858888f19350505050158015610618573d6000803e3d6000fd5b50600191505090565b600061066383836040805190810160405280601881526020017f536166654d6174683a206d6f64756c6f206279207a65726f000000000000000081525061073f565b905092915050565b60006106ad83836040805190810160405280601a81526020017f536166654d6174683a206469766973696f6e206279207a65726f000000000000815250610804565b905092915050565b6000808284019050838110151515610735576040517f08c379a000000000000000000000000000000000000000000000000000000000815260040180806020018281038252601b8152602001807f536166654d6174683a206164646974696f6e206f766572666c6f77000000000081525060200191505060405180910390fd5b8091505092915050565b600080831415829015156107ee576040517f08c379a00000000000000000000000000000000000000000000000000000000081526004018080602001828103825283818151815260200191508051906020019080838360005b838110156107b3578082015181840152602081019050610798565b50505050905090810190601f1680156107e05780820380516001836020036101000a031916815260200191505b509250505060405180910390fd5b5082848115156107fa57fe5b0690509392505050565b6000808311829015156108b2576040517f08c379a00000000000000000000000000000000000000000000000000000000081526004018080602001828103825283818151815260200191508051906020019080838360005b8381101561087757808201518184015260208101905061085c565b50505050905090810190601f1680156108a45780820380516001836020036101000a031916815260200191505b509250505060405180910390fd5b50600083858115156108c057fe5b04905080915050939250505056fea165627a7a7230582090e417f3e678774865fdc19135c578958d97053e82bfd0440d9b758e3e45ff850029",
  "source": "pragma solidity ^0.5.0;\n\nimport \"./SafeMath.sol\";\n\ncontract Splitter {\n    mapping (address => uint) public balances;\n    event LogAmountSent(address indexed from, address indexed bob, address indexed carol, uint256 amount);\n    event LogAmountWithdrawn ( address indexed from, uint256 amount);\n    \n    using SafeMath for uint256;\n\n    constructor() public {}\n\n    function split( address bob, address carol) public payable returns(bool success){\n     require(msg.value>0, \"You need to send value\");\n     require( bob == address(0x0) && carol == address(0x0));\n        uint256 remainder = msg.value.mod(2); \n        uint256 amount = msg.value.div(2);\n        \n        if(remainder != 0){\n          balances[msg.sender] = balances[msg.sender].add(remainder);\n        }\n           \n           \n        balances[bob] = balances[bob].add(amount);\n        balances[carol] = balances[carol].add(amount);\n            \n        emit LogAmountSent(msg.sender, bob, carol, msg.value); \n            \n        return true;\n    }\n       \n      function withdraw() public returns(bool success) {\n          uint256 toWithdraw = balances[msg.sender];\n        require(toWithdraw >= 1);\n        \n        balances[msg.sender] = 0; \n        \n        emit LogAmountWithdrawn(msg.sender, toWithdraw);\n        msg.sender.transfer(toWithdraw);  \n        \n        \n        return true;\n            }\n       \n}",
  "sourcePath": "/Users/malou/Desktop/Splitter_Project/contracts/Splitter.sol",
  "compiler": {
    "name": "solc",
    "version": "0.5.0+commit.1d4f565a.Emscripten.clang"
  },
  "schemaVersion": "3.0.3",
  "updatedAt": "2019-09-05T19:33:20.395Z",
  "devdoc": {
    "methods": {}
  },
  "userdoc": {
    "methods": {}
  }
}