{
  "contractName": "Splitter",
  "abi": [
    {
      "inputs": [],
      "payable": true,
      "stateMutability": "payable",
      "type": "constructor"
    },
    {
      "constant": false,
      "inputs": [
        {
          "name": "amount",
          "type": "uint256"
        }
      ],
      "name": "sendSplit",
      "outputs": [
        {
          "name": "splitAmount",
          "type": "uint256"
        }
      ],
      "payable": true,
      "stateMutability": "payable",
      "type": "function"
    }
  ],
  "bytecode": "0x6080604052336000806101000a81548173ffffffffffffffffffffffffffffffffffffffff021916908373ffffffffffffffffffffffffffffffffffffffff1602179055506101dc806100536000396000f3fe608060405260043610610041576000357c0100000000000000000000000000000000000000000000000000000000900463ffffffff168063c529821514610046575b600080fd5b6100726004803603602081101561005c57600080fd5b8101908080359060200190929190505050610088565b6040518082815260200191505060405180910390f35b600060023481151561009657fe5b049050600073a52c270bc92207e595c35841c7f1f428dbc1d564905060007377e1a72cf3c47d4c6de1d00cdbfd38865bbc6a57905083600160003373ffffffffffffffffffffffffffffffffffffffff1673ffffffffffffffffffffffffffffffffffffffff168152602001908152602001600020600082825403925050819055508173ffffffffffffffffffffffffffffffffffffffff166108fc849081150290604051600060405180830381858888f1935050505015801561015e573d6000803e3d6000fd5b508073ffffffffffffffffffffffffffffffffffffffff166108fc849081150290604051600060405180830381858888f193505050501580156101a5573d6000803e3d6000fd5b50349250505091905056fea165627a7a72305820027573f7ca629d74c9582337de5f5df13e994baaaacc4da3507c75070ae6c5d20029",
  "source": "pragma solidity ^0.5.0;\n\ncontract Splitter {\n    address alice = msg.sender; \n    mapping (address => uint) _balance;\n  \n     \n    constructor() public payable{}\n    \n    function sendSplit(uint amount) public payable returns(uint splitAmount){\n       splitAmount = msg.value/2;\n       address payable bob = 0xa52c270BC92207E595C35841c7f1f428DBC1d564;\n       address payable carol = 0x77e1A72cf3C47D4c6De1D00Cdbfd38865bbc6a57;\n          _balance[msg.sender] -= amount;\n           bob.transfer(splitAmount);\n           carol.transfer(splitAmount); \n            return msg.value; \n       }\n    }\n",
  "sourcePath": "/Users/malou/Desktop/Splitter_Project/contracts/splitter_contract.sol",
  "compiler": {
    "name": "solc",
    "version": "0.5.0+commit.1d4f565a.Emscripten.clang"
  },
  "schemaVersion": "3.0.3",
  "updatedAt": "2019-08-05T14:14:19.449Z",
  "devdoc": {
    "methods": {}
  },
  "userdoc": {
    "methods": {}
  }
}